:020000040800F2
:1000000000800120D10A00084D0A0008550A0008A6
:100010005D0A0008650A00086D0A0008000000007B
:10002000000000000000000000000000750A000849
:10003000830A000800000000910A00089F0A0008D7
:10004000210B0008210B0008210B0008210B0008E0
:10005000210B0008210B0008210B0008210B0008D0
:10006000210B0008210B0008210B0008210B0008C0
:10007000210B0008210B0008210B0008210B0008B0
:10008000210B0008210B0008210B000800000000D4
:10009000000000000000000000000000210B00082C
:1000A000210B0008210B0008210B0008210B000880
:1000B000210B0008210B0008210B0008210B000870
:1000C000210B0008210B0008210B0008210B000860
:1000D000210B0008210B0008210B00080000000084
:1000E000210B0008210B0008210B00080000000074
:1000F000000000000000000000000000210B0008CC
:1001000000000000210B0008210B0008210B000853
:1001100000000000000000000000000000000000DF
:10012000210B0008210B0008210B0008210B0008FF
:10013000210B00080000000000000000000000008B
:10014000000000000000000000000000210B00087B
:10015000210B0008210B0008210B0008210B0008CF
:10016000210B0008210B0008000000000000000027
:10017000000000000000000000000000000000007F
:1001800000000000210B000800000000000000003B
:04019000210B000837
:1001940010B5054C237833B9044B13B10448AFF3BD
:1001A40000800123237010BD0C000020000000001B
:1001B400BC25000808B5034B1BB103490348AFF342
:1001C400008008BD0000000010000020BC250008CD
:1001D40053B94AB9002908BF00281CBF4FF0FF31AA
:1001E4004FF0FF3000F088B9ADF1080C6DE904CE92
:1001F40000F006F8DDF804E0DDE9022304B07047FE
:100204002DE9F047089D8E4604468846002B4AD1C6
:100214008A42174662D9B2FA82F64EB1C6F1200379
:1002240001FA06F820FA03F3B74043EA0808B44099
:100234004FEA174E1FFA87FCB8FBFEF1230C0EFBA6
:10024400118843EA084301FB0CF29A4209D9FB18CE
:1002540001F1FF3080F0EA809A4240F2E7800239EF
:100264003B449A1AA3B2B2FBFEF00EFB102243EAFF
:10027400024300FB0CFC9C4509D9FB1800F1FF323A
:1002840080F0D6809C4540F2D3803B44023840EA5B
:100294000140A3EB0C0300211DB1F3400022C5E98A
:1002A4000032BDE8F0878B4205D90DB1C5E90001E4
:1002B40000210846F5E7B3FA83F1002946D17345D6
:1002C40002D3824200F20581841A6EEB03020120FC
:1002D4009046002DE5D0C5E90048E2E7002A00F089
:1002E4009080B2FA82F6002E40F0A4808A1A030CA1
:1002F4004FEA174E80B2BCB20121B2FBFEFC0EFBEA
:100304001C2243EA024304FB0CF29A4207D9FB186D
:100314000CF1FF3802D29A4200F2E080C4469B1AE4
:10032400B3FBFEF20EFB123340EA034302FB04F478
:100334009C4207D9FB1802F1FF3002D29C4200F222
:10034400CA8002461B1B42EA0C40A5E7C1F1200605
:100354008B4022FA06F71F430EFA01F420FA06F343
:100364002EFA06FE4FEA1749234300FA01F81FFA52
:1003740087FCBEFBF9F01C0C09FB10EE44EA0E44AA
:1003840000FB0CFEA64502FA01F209D93C1900F162
:10039400FF3A80F09C80A64540F2998002383C44A4
:1003A400A4EB0E041FFA83FEB4FBF9F309FB134418
:1003B4004EEA044403FB0CFCA44508D93C1903F1A0
:1003C400FF3E80F08280A4457FD9023B3C4443EA4F
:1003D4000040A4EB0C04A0FB02EC64457346E14628
:1003E40062D35FD05DB1B8EB030264EB090404FA95
:1003F40006F622FA01F31E43CC40C5E9006400214D
:100404004FE7B1FBF2FC010C41EA0E4180B240EA35
:1004140001423B4638463C46B846BE462026B1FB20
:10042400F7F1A2EB080241EA0C4166E7014618E73E
:1004340010462CE7C6F120022EFA02F3B740B14071
:1004440020FA02F24FEA174E0A43B3FBFEF8BCB29D
:100454000EFB1833110C41EA034108FB04F9B040C8
:1004640089454FEA104380B23ED9791808F1FF3C20
:1004740001D289451FD8A1EB0901B1FBFEF909FBA3
:1004840004F80EFB191192B242EA0142424529D204
:10049400BA1809F1FF31C4D24245C2D2A9F102010E
:1004A4003A44BEE7F0459DD2BEEB02036CEB070C69
:1004B4000138E14696E7A7EB09094944A8F1020C83
:1004C400B1FBFEF909FB04F8DBE773467FE750460E
:1004D40066E70846FDE63B44023A33E7ACF1020C1A
:1004E4003B441CE749469CE7A1EB0901C446B1FB28
:1004F400FEF909FB04F8C4E7704700BF80B485B077
:1005040000AFF860084611461A4603467B810B4645
:100514003B811346FB80094AFB681360084A7B89C8
:100524001380074A3B895380054AFB88938000BFA8
:100534001437BD465DF8047B704700BF28000020D7
:100544002C00002080B500AF084B1B68084A518876
:100554000022184600F0E4FD044B1B68044A51884D
:100564000122184600F0DCFD00BF80BD28000020F9
:100574002C00002080B500AF044B1B68044A91880E
:100584000122184600F0CCFD00BF80BD28000020E9
:100594002C00002080B500AF044B1B68044A11886E
:1005A4000022184600F0BCFD00BF80BD28000020DA
:1005B4002C00002080B582B000AF00F0B1FA00F04A
:1005C40033F800F0FDF800F0D1F800F099F820239A
:1005D4004FF4007208211248FFF790FFFFF7CAFF9B
:1005E400FFF7D8FFFF23FB71F91D642301220D4897
:1005F40001F0D1FAFFF7A6FF4FF4FA7000F002FB06
:100604000023FB71F91D64230122064801F0C3FA9B
:10061400FFF798FF4FF4FA7000F0F4FA00BFE1E737
:10062400000802403400002080B594B000AF07F108
:10063400200330220021184601F092FF07F10C0339
:1006440000221A605A609A60DA601A610023BB6063
:10065400294B1B6C284A43F080531364264B1B6CB4
:1006640003F08053BB60BB6800237B60234B1B6893
:1006740023F44043214A43F4004313601F4B1B6897
:1006840003F440437B607B6802233B620123FB62EB
:1006940010233B630223BB630023FB6310233B64EF
:1006A4004FF4A8737B640423BB640723FB6407F142
:1006B4002003184600F04EFD0346002B01D000F045
:1006C40005F90F23FB6002233B6100237B614FF498
:1006D4008053BB610023FB6107F10C030221184620
:1006E40000F0B0FF0346002B01D000F0EFF800BF8C
:1006F4005037BD4680BD00BF003802400070004046
:1007040080B500AF174B184A1A60164B4FF482722B
:100714005A60144B00229A60124B0022DA60114B8B
:1007240000221A610F4B00225A610E4B4FF40072E3
:100734009A610C4B0022DA610A4B00221A62094BBF
:1007440000225A62074B00229A62064B0A22DA629E
:10075400044801F097F90346002B01D000F0B6F8E5
:1007640000BF80BD340000200030014080B500AFE0
:10077400114B124A1A60104B4FF4E1325A600E4B7F
:1007840000229A600C4B0022DA600B4B00221A61A3
:10079400094B0C225A61084B00229A61064B002235
:1007A400DA61054801F018FC0346002B01D000F083
:1007B4008DF800BF80BD00BF8C00002000440040C5
:1007C40080B58AB000AF07F1140300221A605A60A2
:1007D4009A60DA601A6100233B61394B1B6B384A1B
:1007E40043F004031363364B1B6B03F004033B61B8
:1007F4003B690023FB60324B1B6B314A43F080039F
:1008040013632F4B1B6B03F08003FB60FB68002317
:10081400BB602B4B1B6B2A4A43F001031363284B29
:100824001B6B03F00103BB60BB6800237B60244B9C
:100834001B6B234A43F002031363214B1B6B03F02E
:1008440002037B607B6800224FF40A711D4800F0AC
:1008540067FC00224FF480711B4800F061FC4FF4E8
:1008640000537B614FF40413BB610023FB6107F168
:1008740014031946134800F0CFFA4FF40A737B614E
:100884000123BB610023FB6100233B6207F11403D6
:1008940019460C4800F0C0FA4FF480737B610123C1
:1008A400BB610023FB6100233B6207F1140319467B
:1008B400054800F0B1FA00BF2837BD4680BD00BF2F
:1008C40000380240000802400000024080B400AF3B
:1008D40072B600BF00BFFDE780B483B000AF002351
:1008E4007B60104B5B6C0F4A43F4804353640D4BA5
:1008F4005B6C03F480437B607B6800233B60094BA3
:100904001B6C084A43F080531364064B1B6C03F0C2
:1009140080533B603B6800BF0C37BD465DF8047BE9
:10092400704700BF0038024080B58AB000AF7860DD
:1009340007F1140300221A605A609A60DA601A619F
:100944007B681B68194A93422BD100233B61184BE7
:100954005B6C174A43F480535364154B5B6C03F48C
:1009640080533B613B690023FB60114B1B6B104AB6
:1009740043F0010313630E4B1B6B03F00103FB6095
:10098400FB68E0237B610223BB610023FB6103233B
:100994003B6205237B6207F114031946054800F006
:1009A4003BFA00BF2837BD4680BD00BF0030014080
:1009B400003802400000024080B58AB000AF786081
:1009C40007F1140300221A605A609A60DA601A610F
:1009D4007B681B68194A93422BD100233B61184B57
:1009E4001B6C174A43F400331364154B1B6C03F45C
:1009F40000333B613B690023FB60114B1B6B104AC6
:100A040043F0010313630E4B1B6B03F00103FB6004
:100A1400FB680C237B610223BB610023FB61002381
:100A24003B6207237B6207F114031946054800F073
:100A3400F3F900BF2837BD4680BD00BF0044004025
:100A4400003802400000024080B400AF00BFFDE760
:100A540080B400AF00BFFDE780B400AF00BFFDE786
:100A640080B400AF00BFFDE780B400AF00BFFDE776
:100A740080B400AF00BFBD465DF8047B704780B40E
:100A840000AF00BFBD465DF8047B704780B400AF83
:100A940000BFBD465DF8047B704780B500AF00F031
:100AA40091F800BF80BD000080B400AF064BD3F8BE
:100AB4008830054A43F47003C2F8883000BFBD464D
:100AC4005DF8047B704700BF00ED00E0DFF834D030
:100AD400FFF7EAFF0C480D490D4A002302E0D45801
:100AE400C4500433C4188C42F9D30A4A0A4C002374
:100AF40001E013600432A242FBD301F039FDFFF799
:100B040059FD704700800120000000200C000020E7
:100B1400FC2500080C000020D8000020FEE700009F
:100B240080B500AF0E4B1B680D4A43F4007313608D
:100B34000B4B1B680A4A43F480631360084B1B6821
:100B4400074A43F480731360032000F031F9002056
:100B540000F008F8FFF7C0FE0023184680BD00BF70
:100B6400003C024080B582B000AF7860124B1A6836
:100B7400124B1B7819464FF47A73B3FBF1F3B2FBB3
:100B8400F3F3184600F03BF90346002B01D0012390
:100B94000EE07B680F2B0AD8002279684FF0FF30F3
:100BA40000F011F9064A7B681360002300E001237A
:100BB40018460837BD4680BD00000020080000200C
:100BC4000400002080B400AF064B1B781A46064B85
:100BD4001B681344044A136000BFBD465DF8047BE0
:100BE400704700BF08000020D400002080B400AF8C
:100BF400034B1B681846BD465DF8047B704700BF75
:100C0400D400002080B584B000AF7860FFF7EEFF19
:100C1400B8607B68FB60FB68B3F1FF3F05D00A4B0B
:100C24001B781A46FB681344FB6000BFFFF7DEFF26
:100C34000246BB68D31AFA689A42F7D800BF00BFCD
:100C44001037BD4680BD00BF0800002080B485B0C9
:100C540000AF78607B6803F00703FB600C4BDB6834
:100C6400BB60BA684FF6FF031340BB60FB681A020F
:100C7400BB68134343F0BF6343F40033BB60044ACF
:100C8400BB68D36000BF1437BD465DF8047B704772
:100C940000ED00E080B400AF044BDB681B0A03F0F6
:100CA40007031846BD465DF8047B704700ED00E07D
:100CB40080B483B000AF03463960FB7197F9073005
:100CC400002B0ADB3B68DAB20C4997F907301201B2
:100CD400D2B20B4483F800230AE03B68DAB2084935
:100CE400FB7903F00F03043B1201D2B20B441A76D2
:100CF40000BF0C37BD465DF8047B704700E100E09F
:100D040000ED00E080B489B000AFF860B9607A60AB
:100D1400FB6803F00703FB61FB69C3F10703042BC2
:100D240028BF0423BB61FB690433062B02D9FB698A
:100D3400033B00E000237B614FF0FF32BB6902FA02
:100D440003F3DA43BB681A407B699A404FF0FF31E2
:100D54007B6901FA03F3D9437B680B4013431846BC
:100D64002437BD465DF8047B7047000080B582B02F
:100D740000AF78607B68013BB3F1807F01D301232E
:100D84000FE00A4A7B68013B53600F214FF0FF30AC
:100D9400FFF78EFF054B00229A60044B07221A606E
:100DA400002318460837BD4680BD00BF10E000E0B0
:100DB40080B582B000AF78607868FFF747FF00BF66
:100DC4000837BD4680BD80B586B000AF0346B96024
:100DD4007A60FB7300237B61FFF75CFF78617A68BC
:100DE400B9687869FFF78EFF024697F90F3011460C
:100DF4001846FFF75DFF00BF1837BD4680BD80B5BC
:100E040082B000AF78607868FFF7B0FF03461846F9
:100E14000837BD4680BD000080B489B000AF78605B
:100E2400396000237B6100233B610023BB61002305
:100E3400FB6159E10122FB6902FA03F37B613B6820
:100E44001B687A6913403B613A697B699A4240F0B6
:100E540048813B685B6803F00303012B05D03B68C2
:100E64005B6803F00303022B30D17B689B68BB6192
:100E7400FB695B00032202FA03F3DB43BA69134004
:100E8400BB613B68DA68FB695B0002FA03F3BA6989
:100E94001343BB617B68BA699A607B685B68BB611A
:100EA4000122FB6902FA03F3DB43BA691340BB6115
:100EB4003B685B681B0903F00102FB6902FA03F358
:100EC400BA691343BB617B68BA695A603B685B6863
:100ED40003F00303032B17D07B68DB68BB61FB695A
:100EE4005B00032202FA03F3DB43BA691340BB61DC
:100EF4003B689A68FB695B0002FA03F3BA6913431F
:100F0400BB617B68BA69DA603B685B6803F0030322
:100F1400022B23D1FB69DA087B68083253F82230AC
:100F2400BB61FB6903F007039B000F2202FA03F382
:100F3400DB43BA691340BB613B681A69FB6903F080
:100F440007039B0002FA03F3BA691343BB61FB690D
:100F5400DA087B680832B96943F822107B681B6899
:100F6400BB61FB695B00032202FA03F3DB43BA694A
:100F74001340BB613B685B6803F00302FB695B00E1
:100F840002FA03F3BA691343BB617B68BA691A6056
:100F94003B685B6803F44033002B00F0A28000231D
:100FA400FB60574B5B6C564A43F480435364544B89
:100FB4005B6C03F48043FB60FB68524AFB699B084B
:100FC400023352F82330BB61FB6903F003039B0037
:100FD4000F2202FA03F3DB43BA691340BB617B6857
:100FE400494A934219D07B68484A934213D07B689C
:100FF400474A93420DD07B68464A934207D07B68A8
:10100400454A934201D1042308E0072306E0032361
:1010140004E0022302E0012300E00023FA6902F065
:10102400030292009340BA691343BB613549FB69DB
:101034009B080233BA6941F82320384B9B68BB6193
:101044003B69DB43BA691340BB613B685B6803F4EB
:101054008013002B03D0BA693B691343BB612F4A49
:10106400BB6993602D4BDB68BB613B69DB43BA69A9
:101074001340BB613B685B6803F40013002B03D08F
:10108400BA693B691343BB61244ABB69D360234BF0
:101094005B68BB613B69DB43BA691340BB613B6876
:1010A4005B6803F40033002B03D0BA693B69134334
:1010B400BB611A4ABB695360184B1B68BB613B692F
:1010C400DB43BA691340BB613B685B6803F480335C
:1010D400002B03D0BA693B691343BB610F4ABB6958
:1010E4001360FB690133FB61FB690F2B7FF6A2AE32
:1010F40000BF00BF2437BD465DF8047B704700BFC6
:101104000038024000380140000002400004024060
:1011140000080240000C024000100240003C014064
:1011240080B483B000AF78600B467B8013467B703D
:101134007B78002B03D07A887B689A6103E07B88F4
:101144001A047B689A6100BF0C37BD465DF8047BC6
:101154007047000080B586B000AF78607B68002BD4
:1011640001D1012367E27B681B6803F00103002BB4
:1011740075D0884B9B6803F00C03042B0CD0854B73
:101184009B6803F00C03082B12D1824B5B6803F4B9
:101194008003B3F5800F0BD17E4B1B6803F400333F
:1011A400002B5BD07B685B68002B57D1012342E2A4
:1011B4007B685B68B3F5803F06D1764B1B68754A44
:1011C40043F4803313601DE07B685B68B3F5A02FA4
:1011D4000CD1704B1B686F4A43F4802313606D4B32
:1011E4001B686C4A43F4803313600BE0694B1B6843
:1011F400684A23F480331360664B1B68654A23F402
:10120400802313607B685B68002B13D0FFF7EEFC30
:10121400386108E0FFF7EAFC02463B69D31A642B05
:1012240001D9032307E25B4B1B6803F40033002B53
:10123400F0D014E0FFF7DAFC386108E0FFF7D6FCE1
:1012440002463B69D31A642B01D90323F3E1514BC2
:101254001B6803F40033002BF0D100E000BF7B686F
:101264001B6803F00203002B63D04A4B9B6803F016
:101274000C03002B0BD0474B9B6803F00C03082B8B
:101284001CD1444B5B6803F48003002B16D1414B03
:101294001B6803F00203002B05D07B68DB68012B7D
:1012A40001D00123C7E13B4B1B6823F0F8027B68A4
:1012B4001B69DB00374913430B603AE07B68DB684A
:1012C400002B20D0344B01221A60FFF78FFC3861C9
:1012D40008E0FFF78BFC02463B69D31A022B01D9C5
:1012E4000323A8E12B4B1B6803F00203002BF0D06F
:1012F400284B1B6823F0F8027B681B69DB00254937
:1013040013430B6015E0244B00221A60FFF76EFCB8
:10131400386108E0FFF76AFC02463B69D31A022BE6
:1013240001D9032387E11B4B1B6803F00203002B45
:10133400F0D17B681B6803F00803002B36D07B6870
:101344005B69002B16D0154B01221A60FFF74EFC87
:10135400386108E0FFF74AFC02463B69D31A022BC6
:1013640001D9032367E10B4B5B6F03F00203002BEE
:10137400F0D01BE0094B00221A60FFF737FC3861FC
:101384000EE0FFF733FC02463B69D31A022B07D960
:10139400032350E10038024000004742800E4742D8
:1013A400884B5B6F03F00203002BEAD17B681B6858
:1013B40003F00403002B00F097800023FB75814B9E
:1013C4001B6C03F08053002B0FD10023BB607D4BBB
:1013D4001B6C7C4A43F0805313647A4B1B6C03F000
:1013E4008053BB60BB680123FB75774B1B6803F418
:1013F4008073002B18D1744B1B68734A43F48073B9
:101404001360FFF7F3FB386108E0FFF7EFFB0246D8
:101414003B69D31A022B01D903230CE16A4B1B68E5
:1014240003F48073002BF0D07B689B68012B06D1FA
:10143400644B1B6F634A43F0010313671CE07B6832
:101444009B68052B0CD15F4B1B6F5E4A43F0040372
:1014540013675C4B1B6F5B4A43F0010313670BE09C
:10146400584B1B6F574A23F001031367554B1B6FEF
:10147400544A23F0040313677B689B68002B15D040
:10148400FFF7B4FB38610AE0FFF7B0FB02463B69A3
:10149400D31A41F28832934201D90323CBE0494B5A
:1014A4001B6F03F00203002BEED014E0FFF79EFB4A
:1014B40038610AE0FFF79AFB02463B69D31A41F20E
:1014C4008832934201D90323B5E03E4B1B6F03F0EE
:1014D4000203002BEED1FB7D012B05D1394B1B6C94
:1014E400384A23F0805313647B689B69002B00F017
:1014F400A180344B9B6803F00C03082B5CD07B6801
:101504009B69022B41D1314B00221A60FFF76EFB1D
:10151400386108E0FFF76AFB02463B69D31A022BE5
:1015240001D9032387E0274B1B6803F00073002BCA
:10153400F0D17B68DA697B681B6A1A437B685B6A53
:101544009B011A437B689B6A5B08013B1B041A439B
:101554007B68DB6A1B061B4913434B601B4B012250
:101564001A60FFF743FB386108E0FFF73FFB0246D0
:101574003B69D31A022B01D903235CE0114B1B688E
:1015840003F00073002BF0D054E0104B00221A60DB
:10159400FFF72CFB386108E0FFF728FB02463B69A4
:1015A400D31A022B01D9032345E0064B1B6803F031
:1015B4000073002BF0D13DE07B689B69012B07D1C0
:1015C400012338E0003802400070004060004742C8
:1015D4001B4B5B68FB607B689B69012B28D0FB6815
:1015E40003F480027B68DB699A4221D1FB6803F033
:1015F4003F027B681B6A9A421AD1FA6847F6C073A5
:1016040013407A68526A9201934211D1FB6803F441
:1016140040327B689B6A5B08013B1B049A4207D1FA
:10162400FB6803F070627B68DB6A1B069A4201D098
:10163400012300E0002318461837BD4680BD00BFD3
:101644000038024080B584B000AF786039607B68B0
:10165400002B01D10123CCE0684B1B6803F0070386
:101664003A689A420CD9654B3A68D2B21A70634B05
:101674001B6803F007033A689A4201D00123B8E0DB
:101684007B681B6803F00203002B20D07B681B6877
:1016940003F00403002B05D0594B9B68584A43F4CC
:1016A400E05393607B681B6803F00803002B05D0AC
:1016B400534B9B68524A43F460439360504B9B687E
:1016C40023F0F0027B689B684D4913438B607B6871
:1016D4001B6803F00103002B44D07B685B68012B7B
:1016E40007D1474B1B6803F40033002B19D10123A6
:1016F4007FE07B685B68022B03D07B685B68032B0D
:1017040007D13F4B1B6803F00073002B09D1012361
:101714006FE03B4B1B6803F00203002B01D1012354
:1017240067E0374B9B6823F003027B685B683449AE
:1017340013438B60FFF75AFAF8600AE0FFF756FA92
:101744000246FB68D31A41F28832934201D903233B
:101754004FE02B4B9B6803F00C027B685B689B009B
:101764009A42EBD1254B1B6803F007033A689A426F
:101774000CD2224B3A68D2B21A70204B1B6803F089
:1017840007033A689A4201D0012332E07B681B6860
:1017940003F00403002B08D0194B9B6823F4E05298
:1017A4007B68DB68164913438B607B681B6803F016
:1017B4000803002B09D0124B9B6823F460427B681A
:1017C4001B69DB000E4913438B6000F021F80246CD
:1017D4000B4B9B681B0903F00F030A49CB5C22FAED
:1017E40003F3094A1360094B1B681846FFF7BAF95B
:1017F400002318461037BD4680BD00BF003C0240A0
:1018040000380240D4250008000000200400002015
:101814002DE9B04F94B000AF00237B640023FB6438
:1018240000233B640023BB64794B9B6803F00C03E7
:10183400082B0DD0082B00F2E180002B02D0042BE2
:1018440003D0DBE0734BBB64DBE0734BBB64D8E0D9
:101854006F4B5B6803F03F037B646D4B5B6803F481
:101864008003002B63D06A4B5B689B090022BB6337
:10187400FA63BB6BC3F308033B6300237B63D7E9C1
:101884000C4522462B464FF000004FF00001590151
:1018940041EAD261500102460B462146511A396190
:1018A400294663EB01037B614FF000024FF0000314
:1018B400D7E904AB59468B01514643EA916351463B
:1018C4008A015146B2EB0108594663EB01094FF016
:1018D40000024FF000034FEAC90343EA58734FEA8A
:1018E400C80290469946234618EB0303BB602B4677
:1018F40049EB0303FB604FF000024FF00003D7E90C
:10190400024529464B02214643EAD15321464A0265
:10191400104619467B6C0022BB62FA62D7E90A239F
:10192400FEF756FC02460B461346FB6458E0384B60
:101934005B689B09002218461146C0F308033B620A
:1019440000237B62D7E9088942464B464FF00000EA
:101954004FF00001590141EAD261500102460B46A1
:101964004146B2EB010A494663EB010B4FF000021A
:101974004FF000034FEA8B1343EA9A634FEA8A124B
:10198400B2EB0A0463EB0B054FF000024FF00003C7
:10199400EB0043EA5473E20014461D464346E31841
:1019A4003B604B4645EB03037B604FF000024FF076
:1019B4000003D7E9004529468B02214643EA9153A7
:1019C40021468A02104619467B6C0022BB61FA61EB
:1019D400D7E90623FEF7FCFB02460B461346FB64DD
:1019E4000B4B5B681B0C03F0030301335B003B648C
:1019F400FA6C3B6CB2FBF3F3BB6402E0054BBB64D3
:101A040000BFBB6C18465037BD46BDE8B08F00BF61
:101A1400003802400024F40000127A0080B400AFC1
:101A2400034B1B681846BD465DF8047B704700BF36
:101A34000000002080B500AFFFF7F0FF0246054B21
:101A44009B689B0A03F007030349CB5C22FA03F368
:101A5400184680BD00380240E425000880B500AF78
:101A6400FFF7DCFF0246054B9B685B0B03F00703A3
:101A74000349CB5C22FA03F3184680BD00380240C8
:101A8400E425000880B582B000AF78607B68002B45
:101A940001D101237BE07B685B6A002B08D17B6862
:101AA4005B68B3F5827F09D07B680022DA6105E0C8
:101AB4007B6800221A617B6800225A617B680022DD
:101AC4009A627B6893F85130DBB2002B06D17B68B5
:101AD400002283F850207868FEF726FF7B680222F4
:101AE40083F851207B681B681A687B681B6822F0A6
:101AF40040021A607B685B6803F482727B689B68AF
:101B040003F404431A437B68DB6803F400631A4359
:101B14007B681B6903F002031A437B685B6903F06B
:101B240001031A437B689B6903F400731A437B68BF
:101B3400DB6903F038031A437B681B6A03F08003F4
:101B440042EA03017B689B6A03F400527B681B68CA
:101B54000A431A607B689B691B0C03F004017B68D1
:101B64005B6A03F010027B681B680A435A607B6857
:101B74001B68DA697B681B6822F40062DA617B689F
:101B840000225A657B68012283F8512000231846FD
:101B94000837BD4680BD80B588B000AFF860B96035
:101BA4003B601346FB80FFF721F8F861FB887B83D9
:101BB400FB6893F85130DBB2012B01D002232AE1F8
:101BC400BB68002B02D0FB88002B01D1012322E14A
:101BD400FB6893F85030012B01D102231BE1FB6811
:101BE400012283F85020FB68032283F85120FB680C
:101BF40000225A65FB68BA681A63FB68FA889A86F9
:101C0400FB68FA88DA86FB6800229A63FB68002284
:101C14009A87FB680022DA87FB6800225A64FB6813
:101C240000221A64FB689B68B3F5004F0FD1FB6870
:101C34001B681A68FB681B6822F040021A60FB6884
:101C44001B681A68FB681B6842F480421A60FB68D0
:101C54001B681B6803F04003402B07D0FB681B681C
:101C64001A68FB681B6842F040021A60FB68DB6874
:101C7400B3F5006F52D1FB685B68002B02D07B8BFD
:101C8400012B45D1FB681B6B1A88FB681B68DA6063
:101C9400FB681B6B9A1CFB681A63FB68DB8E9BB2A8
:101CA400013B9AB2FB68DA8632E0FB681B689B68EA
:101CB40003F00203022B12D1FB681B6B1A88FB682A
:101CC4001B68DA60FB681B6B9A1CFB681A63FB6871
:101CD400DB8E9BB2013B9AB2FB68DA8618E0FEF712
:101CE40085FF0246FB69D31A3A689A4203D83B68D7
:101CF400B3F1FF3F02D13B68002B09D1FB680122FD
:101D040083F85120FB68002283F85020032382E0EB
:101D1400FB68DB8E9BB2002BC7D153E0FB685B688A
:101D2400002B02D07B8B012B47D1FB681A6BFB681D
:101D34001B680C3312781A70FB681B6B5A1CFB6807
:101D44001A63FB68DB8E9BB2013B9AB2FB68DA86AE
:101D540033E0FB681B689B6803F00203022B13D17A
:101D6400FB681A6BFB681B680C3312781A70FB68EB
:101D74001B6B5A1CFB681A63FB68DB8E9BB2013B2E
:101D84009AB2FB68DA8618E0FEF730FF0246FB6978
:101D9400D31A3A689A4203D83B68B3F1FF3F02D1A1
:101DA4003B68002B09D1FB68012283F85120FB68B2
:101DB400002283F8502003232DE0FB68DB8E9BB2C6
:101DC400002BC6D1FA693968F86800F0B1F8034607
:101DD400002B02D0FB6820225A65FB689B68002B0D
:101DE4000AD100237B61FB681B68DB687B61FB68AD
:101DF4001B689B687B617B69FB68012283F8512027
:101E0400FB68002283F85020FB685B6D002B01D037
:101E1400012300E0002318462037BD4680BD0000A2
:101E240080B588B000AFF860B9603B601346FB71C1
:101E3400FEF7DCFE0246BB6A9B1A3A681344FB6158
:101E4400FEF7D4FEB861394B1B685B011B0DFA69C0
:101E540002FB03F37B6155E03B68B3F1FF3F51D0D4
:101E6400FEF7C4FE0246BB69D31AFA699A4202D944
:101E7400FB69002B3DD1FB681B685A68FB681B6833
:101E840022F0E0025A60FB685B68B3F5827F11D1EF
:101E9400FB689B68B3F5004F04D0FB689B68B3F5FF
:101EA400806F07D1FB681B681A68FB681B6822F007
:101EB40040021A60FB689B6AB3F5005F0FD1FB68B0
:101EC4001B681A68FB681B6822F400521A60FB68DE
:101ED4001B681A68FB681B6842F400521A60FB68AE
:101EE400012283F85120FB68002283F85020032349
:101EF40018E07B69002B02D10023FB6102E07B69BF
:101F0400013B7B61FB681B689A68BB681340BA6835
:101F14009A420CBF01230023DBB21A46FB799A4292
:101F24009AD1002318462037BD4680BD000000200A
:101F340080B588B002AFF860B9607A607B680093BE
:101F4400BB6801220221F868FFF76AFF0346002BF1
:101F540007D0FB685B6D43F02002FB685A650323DE
:101F640032E01B4B1B681B4AA2FB03235B0D4FF49F
:101F74007A7202FB03F37B61FB685B68B3F5827FD3
:101F840012D17B680093BB6800228021F868FFF7B8
:101F940047FF0346002B16D0FB685B6D43F020021D
:101FA400FB685A6503230FE07B69002B0AD07B6929
:101FB400013B7B61FB681B689B6803F08003802BFB
:101FC400F2D000E000BF002318461837BD4680BD9C
:101FD40000000020819F5E1680B582B000AF78605B
:101FE4007B68002B01D1012342E07B6893F84130E8
:101FF400DBB2002B06D17B68002283F8402078688E
:10200400FEF7DAFC7B68242283F841207B681B6896
:10201400DA687B681B6822F40052DA60786800F0A2
:102024002BF87B681B681A697B681B6822F4904252
:102034001A617B681B685A697B681B6822F02A0254
:102044005A617B681B68DA687B681B6842F400523B
:10205400DA607B6800225A647B68202283F841207E
:102064007B68202283F842207B6800225A63002385
:1020740018460837BD4680BD2DE9B04FC0B000AF4B
:10208400C7F8F400D7F8F4301B681B6923F44050F8
:10209400D7F8F430D968D7F8F4301A6840EA010365
:1020A4001361D7F8F4309A68D7F8F4301B691A43EF
:1020B400D7F8F4305B691A43D7F8F430DB6913437B
:1020C400C7F8F830D7F8F4301B68DB6823F41641FE
:1020D40021F00C01D7F8F4301A68D7F8F8300B4324
:1020E400D360D7F8F4301B685B6923F44070D7F8E9
:1020F400F4309969D7F8F4301A6840EA010353615F
:10210400D7F8F4301A688F4B9A4205D0D7F8F430D8
:102114001A688D4B9A4204D1FFF7A0FCC7F8FC0063
:1021240003E0FFF787FCC7F8FC00D7F8F430DB695D
:10213400B3F5004F40F00C81D7F8FC300022C7F80B
:10214400E830C7F8EC20D7E93A4522462B469118E7
:10215400B9655B41FB65D7E91623214612EB0108FB
:10216400294643EB01094FF000024FF000034FEA08
:10217400C90343EA58734FEAC80290469946234676
:1021840018EB0303C7F8E0302B4649EB0303C7F809
:10219400E430D7F8F4305B680022C7F8D830C7F8C9
:1021A400DC20D7E936120B46DB183B65134642EBBD
:1021B40003037B65D7E91423D7E93801FEF708F850
:1021C40002460B46614BA3FB02235B091C01D7F8B3
:1021D400FC300022C7F8D030C7F8D420D7E93489BE
:1021E40042464B469118B9645B41FB64D7E912231C
:1021F400414612EB010A494643EB010B4FF0000242
:102204004FF000034FEACB0343EA5A734FEACA0282
:1022140092469B4643461AEB0303C7F8C8304B4625
:102224004BEB0303C7F8CC30D7F8F4305B680022DB
:10223400C7F8C030C7F8C420D7E930120B46DB1802
:102244003B64134642EB03037B64D7E91023D7E9CD
:102254003201FDF7BDFF02460B4611463B4BA3FB83
:1022640001235B09642202FB03F3CB1ADB0003F1B5
:102274003202364BA3FB02235B095B0003F4F873C1
:102284001C44D7F8FC300022C7F8B830C7F8BC208B
:10229400D7E92E8942464B469118B9635B41FB63EB
:1022A400D7E90E2341465118396349464B417B63B4
:1022B4004FF000024FF00003D7E90CAB5946CB00B6
:1022C400514643EA51735146CA0010461946034623
:1022D40042469B18C7F8B0304B460A4642EB03030C
:1022E400C7F8B430D7F8F4305B680022C7F8A830D8
:1022F400C7F8AC20D7E92A120B46DB18BB62134699
:1023040042EB0303FB62D7E90A23D7E92C01FDF76B
:102314005FFF02460B460D4BA3FB02135B096421CE
:1023240001FB03F3D31ADB003233084AA2FB032375
:102334005B0903F00702D7F8F4301B6822449A6063
:1023440006E100BF00100140001401401F85EB515D
:10235400D7F8FC300022C7F8A030C7F8A420D7E98A
:10236400288942464B46911839625B417B62D7E922
:10237400082341465418494643EB01054FF0000237
:102384004FF00003EB0043EA5473E20014461D4689
:102394004346E318C7F898304B4645EB0303C7F8A8
:1023A4009C30D7F8F4305B680022C7F89030C7F847
:1023B40094204FF000024FF00003D7E9244529464A
:1023C4008B00214643EA917321468A00D7E926010E
:1023D400FDF7FEFE02460B46604BA3FB02235B099E
:1023E4001C01D7F8FC300022C7F88830C7F88C20CD
:1023F400D7E9228942464B469118B9615B41FB619A
:10240400D7E9062341465118396149464B417B615E
:102414004FF000024FF00003D7E904AB5946CB005C
:10242400514643EA51735146CA00104619460346C1
:1024340042469B18C7F880304B460A4642EB0303DA
:10244400C7F88430D7F8F4305B680022BB67FA67BA
:102454004FF000024FF00003D7E91E8949468B0074
:10246400414643EA917341468A00D7E92001FDF7CA
:10247400AFFE02460B461146384BA3FB01235B0912
:10248400642202FB03F3CB1A1B013233334AA2FB4F
:1024940003235B0903F0F0031C44D7F8FC3000224B
:1024A4003B677A67D7E91C8942464B469118B96065
:1024B4005B41FB60D7E90223414651183960494624
:1024C4004B417B604FF000024FF00003D7E900ABB3
:1024D4005946CB00514643EA51735146CA0010464F
:1024E4001946034642469B18BB664B460A4642EBD6
:1024F4000303FB66D7F8F4305B6800223B667A6618
:102504004FF000024FF00003D7E9188949468B00C9
:10251400414643EA917341468A00D7E91A01FDF71F
:1025240057FE02460B460D4BA3FB02135B096421C5
:1025340001FB03F3D31A1B013233084AA2FB032322
:102544005B0903F00F02D7F8F4301B6822449A6049
:1025540000BF07F58077BD46BDE8B08F1F85EB51FE
:1025640002440346934200D1704703F8011BF9E784
:1025740070B50D4D0D4C641BA4100026A64209D164
:102584000B4D0C4C00F018F8641BA4100026A64256
:1025940005D170BD55F8043B98470136EEE755F870
:1025A400043B98470136F2E7F4250008F4250008B7
:1025B400F4250008F8250008F8B500BFF8BC08BCED
:1025C4009E467047F8B500BFF8BC08BC9E467047ED
:1025D40000000000000000000102030406070809CF
:0825E4000000000001020304E5
:0825EC0018DCFF7F0100000074
:0425F400B901000821
:0425F8009501000841
:0C25FC000024F4001000000001000000AA
:0400000508000AD114
:00000001FF
